:020000040000FA
:10000000D00C00206D02000081020000830200007D
:10001000850200008502000085020000000000004B
:100020000000000000000000000000008502000049
:10003000850200000000000085020000A5180000F5
:100040008502000085020000850200008502000094
:100050008502000085020000850200008502000084
:100060008502000085020000850200008502000074
:100070008502000085020000850200008502000064
:100080008502000085020000251E00008502000098
:100090008502000085020000850200008502000044
:1000A0008502000085020000850200008502000034
:1000B0008502000085020000850200008502000024
:1000C0008502000085020000850200008502000014
:1000D0008502000085020000850200008502000004
:1000E0008502000000000000000000008502000002
:1000F00085020000850200008502000085020000E4
:1001000085020000850200008502000085020000D3
:1001100000000000000000008502000085020000D1
:1001200085020000850200008502000085020000B3
:10013000411B000085020000E51C00008502000054
:1001400000000000000000000000000000000000AF
:100150008502000085020000850200008502000083
:10016000000000000000000000000000000000008F
:10017000000000000000000000000000000000007F
:10018000000000000000000000000000000000006F
:10019000000000000000000000000000000000005F
:1001A000000000000000000000000000000000004F
:1001B0008502000085020000850200008502000023
:1001C0008502000085020000850200008502000013
:1001D0008502000085020000850200008502000003
:1001E000850200008502000085020000000000007A
:1001F000000000008502000085020000850200006A
:1002000085020000850200000000000000000000E0
:1002100085020000850200008502000085020000C2
:1002200085020000850200008502000085020000B2
:1002300085020000850200008502000085020000A2
:100240008502000085020000850200008502000092
:100250008502000085020000850200008502000082
:100260008502000085020000850200004EF68850DD
:10027000CEF20000016841F47001016000F004B8A2
:10028000FEE7FEE7FEE70000DFF80CD000F04CF8D8
:1002900000480047610D0000D00C00200138FDD15E
:1002A00070470000EFF3108072B67047EFF31080D4
:1002B0007047EFF3108062B6704730BF704780F32D
:1002C00011887047EFF311807047421E12F8013F0A
:1002D000002BFBD111F8013B02F8013B002BF9D1B7
:1002E000704730B505462A460B4612F8010B13F845
:1002F000014B08B1A042F8D01CB1002802D06D1CFF
:10030000F1E7284630BD421C10F8011B0029FBD143
:10031000801A7047034611F8012B00F8012B002AC0
:10032000F9D1184670470000064C074D06E0E0681A
:1003300040F0010394E8070098471034AC42F6D32C
:10034000FFF7A6FF5424000074240000D0F8003406
:1003500012F0010F14BF0B438B43C0F8003412F0AE
:10036000020FD0F8202414BF114322EA0101C0F883
:10037000201470472DE9F00301264FF0000C0325EF
:10038000C2F3411706FA0CF40C4211D0D0F8C48F16
:100390004FEA4C0405FA04F928EA0908C0F8C48FAA
:1003A000D0F8C48F07FA04F448EA0404C0F8C44F34
:1003B0000CF1010C0CF0FF0CBCF1080FE2D3D0F8EB
:1003C00000C512F0010F14BF4CEA010C2CEA010C1D
:1003D000C0F800C5D0F804C512F0020F14BF4CEAF3
:1003E000010C2CEA010CC0F804C5D0F808C512F0C5
:1003F000040F14BF4CEA010C2CEA010CC0F808C52C
:10040000D0F818C512F0080F14BF4CEA010C2CEA02
:10041000010CC0F818C512F0100FD0F83C2514BF1D
:100420000A438A43C0F83C25D0F80C2513F0010F8D
:1004300014BF0A438A43C0F80C25D0F8102513F0E6
:10044000020F14BF0A438A43C0F81025D0F81425C0
:1004500013F0040F14BF0A438A43C0F81425D0F8E0
:100460001C2513F0080F14BF0A438A43C0F81C254B
:10047000D0F8442513F4007F14BF0A438A43C0F820
:100480004425D0F8402513F4407F14BF0A438A4323
:10049000C0F84025D0F82825002B0CBF114322EAD4
:1004A0000101C0F82815BDE8F00370470E4AC0F3FB
:1004B0000741D26E01238B401A420C4A1ABF02EB4D
:1004C000C101496852F83110020AD1F82C354FF0B9
:1004D0000F0C0CFA02FC00F00F0023EA0C03904012
:1004E0001843C1F82C05704700E00F40642000005D
:1004F00050F82100704730B50C4605460022FFF742
:1005000025FF21462846BDE8304008230122FFF799
:1005100031BF30B50C46054608230122FFF72AFFFC
:1005200021462846BDE830400122FFF70FBF30B515
:100530000C4605460222FFF709FF21462846BDE882
:10054000304008230122FFF715BF40F821207047F3
:100550001649042804BF086840F4803018D00528E4
:1005600004BF086840F4003012D0062812D00F28CB
:1005700015D0102838BF7047103800F01F01012235
:1005800002FA01F142090A4850F82200016070475E
:1005900008607047086840F48020086070474FF09A
:1005A000E020016941F002010161704724ED00E0A3
:1005B000B021000010B5FFF77CFE002818BF012015
:1005C00010BD000070B44B4D2A6E296F11F0004F22
:1005D00014BF01F0700002F03000202808BF464828
:1005E00018D005DC88B1102808BF444812D009E0B3
:1005F000302808BF47F230500CD0702808BF4FF4A5
:10060000004007D070BC002070477C203C4B00EAC3
:10061000121018584FF0FF3311F0004F02D011F4B0
:10062000006F06D001F0004C02F400645CEA040C98
:1006300036D1D5F860C1D5F8644104F01F06C4F383
:100640000424641C761C16FB04F46400B0FBF4F074
:10065000CCF309044443CCF3892C00FB0CF0D5F80F
:1006600010C004EB902042F480020CF4704CBCF5F6
:10067000804F08BF234B13D009DCBCF5005F08BFD7
:10068000214B0DD0BCF5405F08BF204B08E0BCF506
:10069000E04F08BF1E4B03D0BCF5104F08BF1D4BE9
:1006A00012F4800F21D011F0004F19D011F0804FBB
:1006B00009D011F4006F0CD001F0004C02F400627C
:1006C0005CEA020205D0C1F3C551491CB0FBF1F050
:1006D0000BE04000C1F38651491CB0FBF1F004E08F
:1006E000C2F3C351491CB0FBF1F0834238BF184636
:1006F00070BC704700E00F4000093D000024F4008A
:1007000008220000005A620200B4C40480F0FA0219
:1007100040787D01002D3101434B30B4196E1A6FC2
:1007200021F4800141F4006142F4006419661C6701
:1007300021EA000212F0010F14D060F00102114012
:100740009A159A651966D3F850C0D2021CF4807FBE
:1007500008D1521E04BF30BC7047D3F850C01CF4FF
:10076000807FF6D021F4FE6100F4FE621143DFF8D1
:10077000BCC024F0700222F0004200EA0C0C4CEAEB
:10078000020200F0080C42EACC0219661A6700F473
:10079000005C21F4005122F400524CEA01014CEAC1
:1007A00002024FF0400CC3F858C012F0004F08BFCF
:1007B00019661A6718BF196621F00101DFF870C0C9
:1007C00021F0F86100EA0C0C4CEA010122F0FC5225
:1007D00000F0FC5C4CEA020210F0804F08BF22F0EF
:1007E000804209D0DFF84CC022F4800200EA0C0CF1
:1007F00041F480014CEA020210F4006F08BF4FF48C
:1008000000400AD1D3F868C11CF0010F01D1401E8D
:10081000F8D121F4006122F4006219661A6730BC35
:100820001020FFF73BBD000000E00F4030000080CB
:100830000100C00700004040C0F307230749C0B2D1
:10084000194401F07043C1F3130143EA411141EA35
:10085000800040F0007001220260704700E60F4007
:100860004FF0E020016941F00501016170474FF050
:10087000E020016941F00201016170474FF0E02181
:10088000401E48617047816911F0100FFBD100686C
:100890007047826912F0200F06BF0160012000201E
:1008A00070478069012121EA10107047D0F818C004
:1008B0001CF0080FFAD1D0F82CC02CF0100CC0F8A6
:1008C0002CC0D0F830C02CF0010C2CF4407CC0F8C7
:1008D00030C0D0F830C0B1EB021F34BF4CF0200C58
:1008E0002CF0200CC0F830C038BF5208C900B1FB52
:1008F000F2F1491C49088A09426201F03F01816214
:10090000C36200218161C16A41F01001C162016BC3
:1009100040F2013211430163704711434163704754
:1009200041647047826B114381637047002914BF93
:10093000006CC06B7047816841F0010181607047B5
:100940000121C160704701607047816841F0020178
:100950008160704702E008C8121F08C1002AFAD15E
:1009600070477047002001E001C1121F002AFBD12F
:10097000704700002DE9F0414D4D4E4C4E4F4F4E0B
:100980009AB04FF000081F2818D2DFE800F01012CC
:10099000181C891A1E7B20894759683D3F414345F1
:1009A0006E8989898989892224332628350044A1C2
:1009B00000E044A16846FFF7ADFCE56370E043A1A9
:1009C000F8E747A1F6E749A1F4E74BA1F2E74DA10B
:1009D000F0E74FA1EEE752A1ECE755A1EAE757A1F6
:1009E0006846FFF797FC334968464031FFF76DFCD6
:1009F00055A143E056A1DDE758A16846FFF78AFC00
:100A000040F6B830A0624BE057A1D3E759A1D1E737
:100A10005BA1CFE75DA1CDE75FA1CBE762A168460F
:100A2000FFF778FC68463968FFF74FFC5FA168461E
:100A3000FFF74BFC042211463046FFF786FD12E01B
:100A40005BA16846FFF766FC002204213046FFF7F1
:100A50007CFD002220213046FFF777FD20E055A1E4
:100A60006846FFF757FC2022F4E753A16846FFF7DA
:100A700051FC6846616AFFF728FC2CA16846FFF725
:100A800024FC0DE04FA16846FFF744FC6846396836
:100A9000FFF71BFC25A16846FFF717FC4C48E063F5
:100AA000684600F087FA1AB04046BDE8F0810000C1
:100AB000F90B00002C000020C0080020006002405C
:100AC00041540000415445300000000041542B4384
:100AD0004E4D493D322C312C302C302C3000000052
:100AE00041542B434D47463D3100000041542B43B8
:100AF00050494E3F0000000041542B434D47443DB8
:100B0000312C340041542B434D47523D31000000FD
:100B100041542B435042533D22534D2200000000CC
:100B200041542B435343533D2247534D2200000071
:100B300041542B434F4C503D3100000041542B4356
:100B40005553443D312C2200222C31350000000049
:100B500041542B43494E443F0000000041542A5069
:100B60005343504F4600000041542B5649503D32EC
:100B70000000000041542B434C564C3D380000000F
:100B800041542B4352534C3D3800000041542B4BF1
:100B90004543484F3D31000041542B4B4E4F495384
:100BA000453D312C31000000415444003B00000021
:100BB000415448004154410041542B435042463D6A
:100BC00022736F0041542B434D47533D22000000D8
:100BD000450C0000064910B50448C86305480024C8
:100BE000406800F007FA204610BD0000F90B000035
:100BF0002C000020C0080020B0B500252C4601279D
:100C00000CA10D48FFF76DFB00B101250BA10A48AF
:100C1000FFF767FB00B101240DB10220B0BD3CB16C
:100C20001E20324660F307023146084600F056F9AE
:100C30003846B0BD4F4B0000F60100204552524FE0
:100C40005200000010B5012407A10848FFF749FB36
:100C500010B140783E2801D0204610BD0549044817
:100C60008863032010BD00000A000000F601002088
:100C7000D50B00002C00002070B514A11548FFF71B
:100C800030FB0024144D012650B114495620087140
:100C900010492E7300200C54401CC0B2FA28FAD31D
:100CA0000FA10C48FFF71DFB00B12E700EA10948E3
:100CB000FFF717FB00B16E700EA10648FFF711FB9E
:100CC000002801D0AE70EC7170BD00002B434F4C7A
:100CD00050000000F60100202C000020F00200204F
:100CE00042555359000000004E4F20434152524993
:100CF0004552000052494E470000000070B50C46B6
:100D0000054611A11248FFF7ECFA00281BD029462E
:100D10000F48FFF7E6FA002815D00EA10C48FFF7A0
:100D2000E0FA00E0401C01782229FBD1002102E01A
:100D30006254491CC9B210F8012F222AF8D1074980
:100D4000C87A401CC87270BD2B435042463A00001E
:100D5000F60100202B435042460000002C000020EA
:100D600000F02CFC00F08EFE044E0124044D00F037
:100D700071FE30780028FAD12C70F8E7CB00002003
:100D80000300002070B50E4CA27CBAB1217D0D4D40
:100D900001EB4103491C55F8236005EB8303066012
:100DA0005D6845601B7A0372C8B22075642801D360
:100DB00000202075521EA274012070BD002070BD5D
:100DC0002C000020100400202DE9F0413E4C0122AF
:100DD0000225617D03263227042922D039B13B4800
:100DE000012909D002290FD003296AD111E0208CF2
:100DF000002866D1627564E000220221FFF7A5FB9E
:100E00001E20208465755CE0208C002859D1667511
:100E100057E00421617502221146FFF796FB2784F3
:100E20004FE0218C2046E9BBC1780024284B0529DE
:100E300046D2DFE801F04603190811001C605C602F
:100E40008463C5703DE0816B61B30446C07B48BBE1
:100E5000187A8847E07034E0C270C16B11B3044661
:100E60008847E070E7732CE00546807A10B100F007
:100E700087FC0CE000F0A4FA00F084F9687B30B144
:100E8000E86A20B900F0CEFC40F6B830E862287B72
:100E900068B1286B58B90F4941200870402000F014
:100EA000B5FE00E00BE02C734FF4FA6028630848AD
:100EB000FFF768FF012804D1EE700748A86300E03F
:100EC000C4700120BDE8F0812C00002000500040DB
:100ED000C0080020F00200207509000070B50D4D1B
:100EE0000D4EEB7C03EB430446F8240006EB840034
:100EF00041600272A87C0021401CC0B2A874642822
:100F000000D3A9745B1CD8B2E874642800D3E974D8
:100F1000012070BD2C0000201004002070B5104D81
:100F200004460E46287A012818D10A23204663F386
:100F30000702FFF7D3FF0B4A002028724321D1702C
:100F400057211171567101465618635C491CC9B28C
:100F5000B3710B29F8D3012129736873012070BD87
:100F60002C000020F002002010B50A4C237A73B93F
:100F70000B2363F30702FFF7B1FF0120064A20723B
:100F80004821D170207360734FF4FA60E062012051
:100F900010BD00002C000020F002002010B4044C12
:100FA000122363F30702606210BCFFF797BF0000D3
:100FB0002C00002010B50022002815D00B4C002377
:100FC000A354521CD2B2FA2AFAD301460748FFF7BB
:100FD000A1F907A10548FFF778F90448FFF793F94D
:100FE000C0B200F0E1FE012010BD0000FC000020B6
:100FF0000D00000038B50EA10022096800910028FC
:1010000015D00C4C0023A354521CD2B2FA2AFAD3A6
:1010100001460848FFF77EF969460648FFF755F98B
:101020000448FFF770F9C0B200F0BEFE012038BDE1
:101030001A000000FC0000200A490A7882B10A4A1E
:101040008B78D25C02708878401CC0B288701E28F1
:1010500001D1002088700878401E08700120704778
:101060000020704700000020CC0000200A4A094BF5
:101070005178585410780023401CC0B210701E28BC
:1010800000D11370491CC8B250701E2800D1537093
:1010900001207047CC0000200000002030B5002463
:1010A00064F3070521462A460846FFF717FF01208B
:1010B00060F3070521462A460846FFF70FFF032085
:1010C00060F3070521462A460846FFF707FF02207E
:1010D00060F3070521462A460846FFF7FFFE052074
:1010E00060F3070521462A460846FFF7F7FE06206B
:1010F00060F3070521462A460846FFF7EFFE192050
:1011000060F3070521462A460846FFF7E7FE1A2046
:1011100060F3070521462A460846FFF7DFFE1C203C
:1011200060F3070521462A460846FFF7D7FE0D2043
:1011300060F3070521462A460846FFF7CFFE0E203A
:1011400060F3070521462A460846FFF7C7FE0F2031
:1011500060F3070521462A460846FFF7BFFE102028
:1011600060F3070521462A460846FFF7B7FE11201F
:1011700060F3070521462A46BDE830400846FFF7E0
:10118000ADBE00002DE9F0426EA17048FFF7A9F84E
:101190006F4D012708B1A87B20B1A87B002601284C
:1011A00011D04FE00820224660F30702414608466E
:1011B000FFF794FE4EF66020E8624FF47A706863A1
:1011C000AF73BDE8F082686BE0BB62A15F48FFF7D8
:1011D00088F84FF0060960B35EA15C48FFF781F81C
:1011E00000E0401C01782229FBD1594B00214033FB
:1011F00002E05A54491CC9B210F8012F222AF8D132
:1012000069F30704414622460846FFF767FE1A20A5
:1012100060F30704414622460846FFF75FFE1D20A3
:1012200060F307042246BDE8F04241460846FFF756
:1012300055BE2246414669F307020846FFF74EFEB7
:10124000AE736F7445A14148FFF74BF8464C002838
:1012500066D046A13D48FFF744F8E0B345A13B48BE
:10126000FFF73FF800E0401C01782229FBD1002263
:101270004249401C10F8013B8B54521CD2B2A02AA8
:10128000F8D3286B40BB687C012806D0022812D016
:10129000032822D0042840D130E00020312262719E
:1012A0000B5C04EB000C401CC0B28CF80630282804
:1012B000F5D3022020E0002032220B1804EB000CB2
:1012C0006271401C93F82830C0B28CF80630282890
:1012D000F3D3032010E023E01FE0002033220B189B
:1012E00004EB000C6271401C93F85030C0B28CF8D3
:1012F00006302828F3D3042068740EE0002034223E
:101300000B1804EB000C6271401C93F87830C0B2EB
:101310008CF806302828F3D36E744D20E0702F73BC
:10132000E86A00287FF44DAFE0784D28FAD14820D4
:10133000E07000202118401CC0B28E712828F9D31B
:101340003FE700002B434D5449000000F601002008
:101350002C0000204B54544B000000002B435553ED
:10136000443A203200000000F0020020222C2031FC
:10137000350000002B43555344000000700300204B
:1013800010B5FFF78BFE022211460A48FFF7DDF881
:1013900009480221C17000218163C16341750F2298
:1013A000028481710121054B8172C17253225A70EE
:1013B000017310BD005000402C000020F0020020FE
:1013C0002DE9F05F784E4FF00A090024317921B3FE
:1013D000B07910B306F14503002003F143021F5C0E
:1013E00002EB000C401CC0B28CF810700728F6D33A
:1013F000B1FBF9F000F1300709FB101057713030E4
:1014000090710720DFF8A4B1924660F307052A46E1
:1014100051465846FFF762FDB471FFF72DFCF07995
:10142000634F4FF00108002822D0307C0B281FD2D8
:10143000DFE800F0061F6F336F476F5B6F72860047
:1014400086F80880707800287DD0DFF86891002247
:1014500004214846FFF779F8002220214846FFF78B
:1014600074F8747000203C54401CC0B2FA28FAD3BF
:1014700069E04D4831214C30FFF750FD30787178EC
:10148000084360D0022030743470747000203C54E3
:10149000401CC0B2FA28FAD355E0434832215830F4
:1014A000FFF73CFD3078717808434CD0042030744D
:1014B0003470747000203C54401CC0B2FA28FAD337
:1014C00041E0394833216430FFF728FD30787178E6
:1014D000084338D0062030743470747000203C54B7
:1014E000401CC0B2FA28FAD32DE02F4834217030C6
:1014F000FFF714FD30787178084324D00820307449
:101500003470747000203C54401CC0B2FA28FAD3E6
:1015100019E0FFF729FD16E0234835217C30FFF75D
:10152000FDFC3078717808430DD086F81090347047
:10153000747000203C54401CC0B2FA28FAD302E078
:10154000FFF712FD3474707A00282BD0B078DFF8E2
:101550006890A0B10C202A4660F307025146584615
:10156000FFF7BCFC522189F80310562189F80410BA
:1015700086F80C8074734FF4FA60F062B47070787F
:1015800000280FD0482189F8031086F80C8086F8CF
:10159000078086F80D80747000203C54401CC0B257
:1015A000FA28FAD3BDE8F09F2C000020C01E0000EE
:1015B000F601002000600240F002002010B509484A
:1015C000FFF7AAF800F048F800F04EFB00F062FACE
:1015D000FFF7D6FE00F05CF900F00CFCBDE810400F
:1015E000FEF7E8BF8003C0012DE9F041184C174D0C
:1015F0000026A078022145F820601648FEF778FF03
:10160000A77815F82710084300F0020045F82700D6
:10161000296801200A4655F82030401C19431A4019
:10162000C0B20428F7D3207B7F1CC04300F0020027
:1016300008401043C04300F00200E060F8B2A07020
:10164000042800D3A670BDE8F0810000EC00002063
:10165000040000200060024010B53E48FFF7ECF89F
:101660003C48801CFFF7E8F83A48401DFFF7E4F8D3
:101670003848C01CFFF7E0F83648001DFFF7DCF8DB
:101680003648354B0360011D0A6842F001020A60CA
:1016900033490A6822F001020A60011F0A6842F019
:1016A00001020A60002202602E490B60081D0368D7
:1016B00043F0800303602C48036823F08003036039
:1016C000081F036843F0800303600A601021274865
:1016D000FEF71FFF264C08212046FEF71AFF0421C3
:1016E0002046FEF716FF02212046FEF712FF0121D9
:1016F0002046FEF70EFF20212046FEF70AFF1D4C74
:1017000001212046FEF705FF02212046FEF701FFDA
:1017100004212046FEF7FDFE08212046FEF7F9FED3
:10172000154C20212046FEF7F4FE02211348FEF757
:10173000F0FE04212046FEF7ECFE02212046FEF7D3
:10174000DAFE20460A230122BDE810400221FEF7FE
:1017500011BE0000010800F04B434F4C20550240E1
:101760002054024020750040207400400050024088
:101770000040024000700040006002400050004005
:1017800010B5214CE07A0C282AD2DFE800F02906B7
:10179000090D1014171B1E222A311B4816301AE09F
:1017A00019491AA04C311FE01748183013E01649A8
:1017B00017A0583118E014481A300CE0124915A04F
:1017C000643111E010481C3005E00F4912A070315F
:1017D0000AE00D481E30FFF7E1FBE07A401CE072A2
:1017E00010BD09490DA07C31BDE81040FFF786BA55
:1017F0000020A07201206073E071607208484621E9
:1018000041704821C17010BD2C000020736F310061
:10181000736F3200736F3300736F3400736F350072
:10182000F002002010B51B2363F30702FFF756FBFD
:101830001048FFF7A7FA104C012803D10320E070ED
:101840000E48A0630EA11048FEF74BFD00280FD0F4
:101850000BA10D48FEF745FD0021491CC9B2401CF3
:101860000929FAD309490078607188700120207332
:1018700010BD0000C00800202C00002075090000E9
:101880002B43494E44000000F6010020F0020020E6
:1018900010B54CF24F30FEF7F1FFBDE81040FEF7F7
:1018A000E6BF000070B529480168012902D9016826
:1018B000491E016026480168012902D90168491EB4
:1018C000016024480168012902D90168491E0160AC
:1018D000214CA08810B1A088401EA080E08810B1E3
:1018E000E088401EE0801D49086808B1401E08607D
:1018F000608910B16089401E60811949086808B18B
:10190000401E08601749086808B1401E0860164963
:10191000086808B1401E08602089401C80B2208100
:10192000B0F5FA7F0BD30025258121780F480129D6
:1019300006D010221146FEF708FE0120207070BD6F
:1019400000221021FEF701FE257070BD1C00002052
:101950001800002020000020040000205400002077
:10196000580000205C000020600000200050024071
:101970002DE9F041FFF728FA2A4DA88830B90A204E
:10198000A8802949087808B1401E0870274E3068A1
:101990000024012803D10220FFF768FB3460244FA4
:1019A0003868012808D1234E3078032801D1FFF789
:1019B0005DFB022030703C601F4E3068012802D170
:1019C000FFF754FB3460E888642630B9EE801B488A
:1019D000018811B10188491E0180FFF705FE1848F2
:1019E0004FF001024168E8680142164803D00178CF
:1019F00031B96E8104E06989012901D16A706C8175
:101A000069780078814304D00F490878401C087039
:101A10006C700E480068012801D10D480270BDE8C5
:101A2000F0810000040000203B000020180000208E
:101A30001C00002015000020200000204C00002089
:101A4000401E0000360000203C0000205400002012
:101A5000CB00002008B5FFF78BFF6846FFF7ECFAD4
:101A600001280CD19DF80000002808D00449012865
:101A700004D0022803D0032801D10420087008BD37
:101A80002F00002010B5FFF79FF9BDE81040FEF7CA
:101A9000E7BE000070B5224C2046FEF7CDFE214D7A
:101AA00040212846FEF735FD002240212846FEF75A
:101AB0004CFD2046FEF7C0FE10212846FEF737FDFC
:101AC0001948FEF7F3FC20212846FEF730FD1748A1
:101AD000FEF7ECFC1648FEF7AFFE30212846FEF775
:101AE00026FD1448016821F030010160FEF76AFD0F
:101AF000114C014666234FF416522046FEF7D6FEDF
:101B00004C20FEF725FD70212046FEF70BFF082232
:101B100001212046FEF701FF08490220C87070BD70
:101B2000020800F0006000400110020001140200F1
:101B3000041800F028650040000001402400002047
:101B40002DE9F0412E4F01213846FEF7EFFE064603
:101B500001463846FEF7E4FE2A4C2B4D202E48D194
:101B6000284E0024403E0EE06879315C3846FEF78E
:101B700090FE641C2879E4B2401E28716879401CEC
:101B80006871082C01D2012100E00021287900B100
:101B9000012001406879102801D3012000E00020D5
:101BA0000142E1D10A202870BDE8F0811920687057
:101BB0003846FEF768FEC1B2E878D0B1012818D0E7
:101BC000022802D0032814D108E00020A870A878C9
:101BD0002218401CA8701170032009E0A878402842
:101BE00005D2A8782218401CA870117001E00120CD
:101BF000E8703846FEF755FE0028D7D1D4E700003C
:101C000000000140300300202400002070B5124C79
:101C1000207100206071402211461048FEF795FCAB
:101C20000F4D104E0AE06079295C3046FEF731FE18
:101C30002079401E20716079401C60716079102805
:101C400001D2012100E00021207900B101200142F0
:101C5000E9D10A20207070BD2400002000600040FF
:101C6000F00200200000014010B51848FEF7E4FD26
:101C7000174C10212046FEF75AFC1648FEF716FCBA
:101C800020212046FEF753FC1348FEF70FFC3021BD
:101C90002046FEF74CFCFEF795FC104C01466023F5
:101CA0004FF4E1322046FEF701FE4E20FEF750FCD5
:101CB00070212046FEF736FE082201212046FEF75D
:101CC0002CFE07490220487010BD0000061800F0E5
:101CD00000700040011003000114030000200140C7
:101CE000140000202DE9F0472C4D01212846FEF775
:101CF0001DFE804601462846FEF712FE0027284EAC
:101D0000284C4FF01909B8F1200F41D1244F00267B
:101D1000FA3F0EE0E078395C2846FEF7BAFD761C03
:101D2000A078F6B2401EA070E078401CE070082E4B
:101D300004D2A07810B1E0781028EBD2C4F8049057
:101D4000BDE8F087C4F808902846FEF79CFDC1B2B4
:101D50006078E8B101281BD0022802D0032817D1EF
:101D600009E0277020783218401C2070117020780C
:101D7000375403200BE02078F92807D22078321856
:101D8000401C207011702078375401E001206070F1
:101D90002846FEF786FD0028D4D1D1E70020014077
:101DA000F60100201400002070B50F4CA070002038
:101DB000E0700E4D0E4E0AE0E078295C3046FEF7EA
:101DC00068FDA078401EA070E078401CE070E078CC
:101DD000102802D2A0780028EED11920606042F2CB
:101DE0001070E06070BD000014000020FC000020B6
:101DF0000020014010B54FF07040FEF71DFD22207D
:101E0000FEF7A6FBFEF7DEFB01464FF080442046BE
:101E1000FEF799FD2046FEF798FD2046BDE81040EC
:101E2000FEF789BD05480178012905D1002101701F
:101E30004FF08040FEF784BD704700000300002093
:101E40000100000002000000040000000800000083
:101E50001000000020000000400000008000000092
:101E60000001000000020000000400000008000063
:101E70000010000000200000004000000080000072
:101E80000000010000000200000004000000080043
:101E90000000100000002000000040000000800052
:101EA0000000000100000002000000040000000823
:101EB0000000001000000020000000400000008032
:101EC000303132393932323132333400004000405F
:101ED000100000000080054010000000005000408D
:101EE000110000000090054011000000006000405B
:101EF0001200000000A00540120000000070004029
:101F00001300000000B00540130000000040024034
:101F10001400000000C00540140000000050024002
:101F20002E00000000D005402E000000006002409E
:101F30002F00000000E005402F000000007002406C
:101F40003000000000F005403000000000D00340E9
:101F50004600000000000640460000000010064059
:101F60004700000000200640480000000030064006
:101F70007F00000000400640800000000050064046
:101F800084000000006006408C000000004000401B
:101F900010000000008005401000000000500040CC
:101FA000110000000090054011000000006000409A
:101FB0001200000000A00540120000000070004068
:101FC0001300000000B00540130000000040024074
:101FD0001400000000C00540140000000050024042
:101FE0002E00000000D005402E00000000600240DE
:101FF0002F00000000E005402F00000000700240AC
:102000003000000000F005403000000000D0034028
:10201000430000000000064043000000001006409E
:10202000440000000020064045000000003006404B
:1020300058000000004006405900000000500640D3
:102040005C00000000600640640000000070064074
:102050006C000000008006406D000000009006400B
:102060007F0000000040004000800540005000401C
:10207000009005400060004000A005400070004056
:1020800000B005400040024000C005400050024042
:1020900000D005400060024000E0054000700240B2
:1020A00000F0054000D0034000000640001006404C
:1020B0000010064000200640002006400030064088
:1020C00000300640004006400040064000500640F8
:1020D0000050064000600640006006400070064068
:1020E00000700640008006400080064000900640D8
:1020F00000900640000700000006000000050000F8
:1021000000040000000300000002000000010000C5
:10211000000000000000000018ED00E01CED00E0F1
:1021200020ED00E000E400E004E400E008E400E06A
:102130000CE400E010E400E014E400E018E400E047
:102140001CE400E020E400E024E400E028E400E0F7
:102150002CE400E030E400E034E400E038E400E0A7
:102160003CE400E040E400E044E400E048E400E057
:102170004CE400E050E400E054E400E058E400E007
:102180005CE400E060E400E064E400E068E400E0B7
:102190006CE400E070E400E074E400E078E400E067
:1021A0007CE400E080E400E084E400E088E400E017
:1021B00000E100E004E100E008E100E00CE100E003
:1021C00010E100E080E100E084E100E088E100E06F
:1021D0008CE100E090E100E000E200E004E200E0D9
:1021E00008E200E00CE200E010E200E080E200E043
:1021F00084E200E088E200E08CE200E090E200E0AF
:1022000000688909001C4E0E40420F0000201C008F
:1022100080841E0000802500999E36000040380012
:1022200000093D0000803E0000004B00404B4C0088
:1022300000204E00808D5B0000C05D0000807000BB
:1022400000127A0000007D0080969800001BB70005
:102250000080BB00C0E8CE00647ADA000024F400FD
:102260000000FA0080A81201002D310100366E0135
:1022700040787D01400000000000000000010000E7
:102280003E0008000000000000010000A000000067
:1022900002000000000100003454010000000000B2
:1022A000000100002B70060000000000000100008B
:1022B00028000000000000000001000027000100CD
:1022C00000000000000100002000000000000000ED
:1022D00000010000500000000200000000010000AA
:1022E0001AAC000000000000000100001794090073
:1022F000000000000001000016980500000000002A
:1023000000010000140000000000000000010000B7
:10231000138008000000000000010000A000000081
:102320000800000000010000100000000000000094
:102330000001000028000000020000000001000071
:1023400040000000040000000001000060000000E8
:1023500000000000000100005D000C000000000013
:10236000000100005000000000000000000100001B
:102370004E000200000000000001000041AC01001E
:1023800000000000000100003C0000000000000010
:10239000000100003A800900000000000001000078
:1023A00030000000000000000001000028000000D4
:1023B00000000000000100002700010000000000F4
:1023C0000001000023600600000000000001000082
:1023D0002160080000000000000100001E00000055
:1023E00000000000000100001DC00400000000000B
:1023F0000001000050000000020000000001000089
:10240000180000000000000000010000140000009F
:102410000000000000010000600000000400000057
:10242000000100000024F40030003000005A620275
:102430009100910000879303D200D20000B4C4043D
:102440001301130100E1F50554015401000E2707A3
:10245000950195017424000000000020CC000000CC
:102460005409000040250000CC000020040C0000AE
:1024700064090000000000000000000000000000EF
:10248000000000000000000000000000000000004C
:10249000000000000000000000000000000000003C
:1024A000000000000000000000000000000000002C
:1024B000000000000000310032003300340035001D
:1024C000000000000000000000000000000000000C
:1024D00000000000000000000000000000000000FC
:1024E000303030303000000000000000202020207C
:1024F00020202020202020002020202020202020FC
:10250000202020002020202020202020202020000B
:1025100020202020202020202020200020202020DB
:1025200020202020202020004552524F5230302DB4
:102530004C4946542049443A78787878787878003D
:04000005000002896C
:00000001FF
